:020000040800F2
:1000000058050020A90100084135000855260008C0
:100010003D35000865070008AD3800080000000005
:10002000000000000000000000000000053600088D
:10003000690700080000000045350008093600087F
:10004000C3010008C3010008C3010008C301000880
:10005000C3010008C3010008C3010008C301000870
:10006000C3010008C3010008C3010008C301000860
:10007000C3010008C3010008C3010008C301000850
:10008000C3010008C3010008C3010008000000000C
:10009000000000000000000000000000C301000894
:1000A000C3010008C3010008C3010008C301000820
:1000B000C3010008C3010008C3010008C301000810
:1000C000C3010008C3010008C3010008C301000800
:1000D000C3010008C3010008C301000800000000BC
:1000E000C3010008C3010008C301000800000000AC
:1000F000000000000000000000000000C301000834
:1001000000000000C3010008C3010008C30100088B
:1001100000000000000000000000000000000000DF
:10012000C3010008C3010008C3010008C30100089F
:10013000C3010008000000000000000000000000F3
:10014000000000000000000000000000C3010008E3
:10015000C3010008C3010008C3010008C30100086F
:10016000C3010008C30100080000000000000000F7
:10017000000000000000000000000000000000007F
:1001800000000000C30100080000000000000000A3
:10019000C3010008DFF80CD000F05CFA004800470B
:1001A000D138000858050020064880470648004717
:1001B000FEE7FEE7FEE7FEE7FEE7FEE7FEE7FEE717
:1001C000FEE7FEE7B1360008950100082DE9F05F73
:1001D0000546002092469B468846064681464024B6
:1001E0001BE0284641464746224600F06AF853463F
:1001F0005A46C01A914110D311461846224600F0C3
:1002000051F82D1A67EB01084F46224601200021C4
:1002100000F048F817EB00094E41201EA4F101043C
:10022000DFDC484631462A464346BDE8F09FD2B25D
:1002300001E000F8012B491EFBD270470022F6E7CF
:1002400010B513460A4604461946FFF7F0FF20464C
:1002500010BD00F0004230F000400AD0C10D01F5A1
:100260006071C0F3160042EA0151C2084007114311
:10027000704700200146704730B50B46014600200C
:100280002022012409E021FA02F59D4205D303FA58
:1002900002F5491B04FA02F52844151EA2F10102D9
:1002A000F1DC30BD202A04DB203A00FA02F1002004
:1002B00070479140C2F1200320FA03F319439040A4
:1002C0007047202A04DB203A21FA02F0002170470F
:1002D00021FA02F3D040C2F12002914008431946AE
:1002E00070472DE9FE4F804681EA0300C00F0C469F
:1002F000009021F0004123F00045B8EB0200A94135
:1003000005D24046214690461C460B46024623F045
:100310000040104347D0270DC7F30A00C3F30A512A
:100320000290401A019040286BDAC3F3130040F4A6
:10033000801B0098924620B10023D2EB030A63EBA6
:100340000B0B01985946C0F140025046FFF7AAFF37
:1003500006460D4650465946019A00F093F910EBB7
:1003600008006141002487EA115284EAE7731A43C6
:1003700040D0009A62B3019A012A4FEA075215DC75
:10038000001B61EB02014FF0004202EA0752CDE987
:100390000042001C41F5801132462B4600F093F9D3
:1003A00003B0BDE8F08F40462146F9E7001B61EB42
:1003B0000201001C41F5801300185B412018A2F5D2
:1003C000001747EB030140EAD570B6196D4111E003
:1003D0006D084FEA360645EAC0754FEA0752001B22
:1003E00061EB0201001C41F5801149084FEA300021
:1003F0000019514132462B4603B0BDE8F04F00F0E2
:1004000053B90098012240000023D0EB020263EBB5
:10041000E073009821464FEAE074B8EB000061EB0E
:100420000401E9E783F000435BE781F0004158E70E
:100430002DE9FE4F81EA030404F0004421F000415D
:1004400000944FF0000B23F0004350EA01045ED00B
:1004500052EA03045BD0C3F30A54C1F30A552C4497
:10046000A4F2F3340194A0FB0254C1F3130141F44C
:100470008011C3F3130343F4801301FB024400FB18
:10048000034E840A970A44EA815447EA8357A4FB3F
:10049000076802958D0A05FB07854FEA932C04FB3C
:1004A0000C542705029D4FEA065847EA1637B5EB6C
:1004B00008056EEB070C870E920E47EA811742EA99
:1004C0008312A7FB0201B6EB0B0164EB00042B0DBA
:1004D00043EA0C335E1844EB1C50DA465146E7FB06
:1004E0000201C5F313044FEA0B3343EA14534FEAF6
:1004F0000432019C43EA0603A4F10C040294009C1C
:10050000CDE900B400F0DFF803B0BDE8F08F0020C3
:100510000146F9E72DE9F04D81EA030404F0004BB0
:1005200021F0004514464FF0000A23F0004150EA44
:10053000050220D054EA01021DD0C5F30A57024635
:10054000C5F31303C1F31300C1F30A5640F4801539
:1005500043F48013A7EB0608101BD64608F2FD38BB
:1005600073EB050002D308F1010801E092185B412A
:10057000B8F1000F03DA00200146BDE8F08D00203D
:100580004FF48011064684460EE0171B73EB0507F7
:1005900005D3121B63EB050306434CEA010C490823
:1005A0004FEA300092185B4150EA0107EDD152EA60
:1005B000030012D082EA040083EA0501084305D053
:1005C000101BAB4106D20122002306E000224FF0AF
:1005D000004302E06FF0010253101AEB06004CEBEF
:1005E000085110EB0A0041EB0B01BDE8F04D00F0A3
:1005F0005BB8C1F30A52C1F3130140F2FF3341F477
:1006000080119A4202DA00200146704740F23343DB
:100610009A42A2F2334202DC5242FFF752BEFFF787
:1006200041BE000030B5041E71F1000404DB4FF040
:100630000044404264EB0101141E73F1000405DB29
:100640001C464FF00043524263EB0403994208BF3B
:10065000904230BD1CB509480090094801900546FC
:10066000009C06E0E06840F0010394E8070098472A
:100670001034AC42F6D3FFF791FD0000C0480008EB
:10068000E0480008202A06DBCB17203A41FA02F0A6
:1006900043EAE07306E041FA02F3D040C2F12002DF
:1006A000914008431946704710B5141E73F10004B9
:1006B00008DA401C41F1000192185B411A4301D154
:1006C00020F0010010BD2DE9F04D92469B4611B17E
:1006D000B1FA81F202E0B0FA80F220329046FFF7E0
:1006E000E1FD04460F4640EA0A0041EA0B01534689
:1006F0005A46084313D0114653EA010019D0C8F1F5
:1007000040025046FFF7DDFD05460E46504659466D
:100710004246FFF7C7FD084305D0012004E020460C
:100720003946BDE8F08D0020054346EAE0762C43CB
:1007300037430A986305E40AA0EB08000022FD0A8B
:1007400044EA47540A3002D500200146E9E7010592
:1007500010196941DDE9084500196941BDE8F04D0E
:10076000A2E70000FEE700007047000072B600BF7D
:10077000FEE7000070B581B00022009290F83C20A6
:10078000012A03D1022001B070BD00BFD1F800E002
:100790000122BEF10A0F1FFA8EFC80F83C2009D31B
:1007A0004FEA4C02036812FA8EF2A2F11E0403F122
:1007B0000C0204E003680EEB4E0403F1100207255F
:1007C0001668A54026EA050515608D68166805FAC5
:1007D00004F4344314604968062907D801EB810109
:1007E0004A1F194651F8345F0FE000BF0C2901EB96
:1007F000810105D8A1F12302194651F8305F04E0C8
:10080000A1F14102194651F82C5F1F24944025EABA
:1008100004040C600CFA02F20C6842F2043CC4F2CC
:10082000010C2243ACF54174A3420A603ED1BEF1F3
:10083000120F07D1DCF8001041F48001CCF8001051
:1008400034E000BF2EF0010110292FD1DCF8001098
:10085000BEF1100F41F40001CCF8001026D140F297
:100860000C01C2F2000109684DF68362C4F21B322A
:10087000A1FB0212910C01EB81014900009100994A
:10088000A1B1009901390091009979B1009901391C
:100890000091009951B1009901390091009929B155
:1008A00000990139009100990029EAD1002180F8CE
:1008B0003C10002001B070BD0068C06C70470000A3
:1008C000002804BF0120704710B5016C00293DD0FD
:1008D000016CC90645D4016C41F202129143023108
:1008E00042F204320164C4F20102116821F4403181
:1008F0001160136890E812102343D0F810E01360E1
:100900004A68012422F480724A604A68C0F6007482
:1009100042EA0E224A604A6822F040724A604A68FF
:1009200042EA0C024A608A6822F400628A60C26865
:100930008B681A438A60826A8B68A24223F07063D4
:100940008B608B6810D123F0405216E0044600F013
:1009500065F820460021616484F83C10016CC906EA
:10096000B9D5012153E000BF1A438A608A6822F09A
:1009700040528A60C26A8B681A438A608A6822F091
:1009800002028A608A68037E90F8204042EA4302AD
:100990008A604A6884B142F400624A604A684EF252
:1009A000000322F460424A60426ACFF6FF734C684B
:1009B00003EB4232224301E022F400624A60CA6A39
:1009C00040F2000C22F47002CA62C3694269CFF699
:1009D000F07CCC6A0CEB03532343CB628B6823F48B
:1009E00000738B6090F830308C6844EA43238B604E
:1009F0008B6823F480638B608B6843EA82228A6071
:100A000000214164026C012363F3010202640022AD
:100A100080F83C20BDE810400846704780B586B09D
:100A200042F200010068C4F20101002288420592EE
:100A3000CDE903220292019202D006B080BD00BF30
:100A400043F630000092C4F20200436943F480731D
:100A50004361436903F480730093009B0092036831
:100A600043F001030360006800F00100009000986B
:100A70000320CDE9010001F5604001A9039200F0D7
:100A800039F906B080BD000070B5044600680D4617
:100A90008268520544BF80685FEAC05038D400F0D5
:100AA000FFF921680A68920749D40646681C3CD0C1
:100AB000DDB90868800721D5086880073FD4086839
:100AC00080071BD50868800739D40868800715D5CA
:100AD0000868800733D4086880070FD50868800746
:100AE000E7D52CE00868800729D400F0D9F9801BED
:100AF0002168A842F6D908688007F3D4206C40F03A
:100B000004002064002084F83C00032070BD00BF76
:100B1000206C40F020002064002084F83C0001207C
:100B200070BD00BF0868800709D40868800706D434
:100B3000086880075CBF08685FEA8070F2D56FF0D4
:100B400012000860206C40F400702064886810F087
:100B5000405F01D0002070BD207E0028FAD1C86A15
:100B600010F4700F02D088684005F3D4206C20F494
:100B700080702064206CC004ECD4206C40F0010034
:100B80002064002070BD000010B581B000210091EC
:100B900090F83C10012903D1022001B010BD00BF24
:100BA0000468012180F83C10214651F8083FDB071A
:100BB00029D10B684DF6836243F001030B6040F2CC
:100BC0000C03C2F200031B68C4F21B32A3FB022316
:100BD0009A0C02EB42020092009AA2B1009A013AEA
:100BE0000092009A7AB1009A013A0092009A52B1AA
:100BF000009A013A0092009A2AB1009A013A0092B2
:100C0000009A002AEAD10A68036CD2070CD143F09B
:100C10001001016400F1440101200A6810430860DA
:100C2000002001B010BD00BF40F2017223EA0202B1
:100C300002F5807202646268520504D5026C0123D9
:100C400063F30D320264026C4FF0000C0023D204F7
:100C500044BF426C22F0060342F2000E436480F867
:100C60003CC06FF02200C4F2010E2060DEF80403E5
:100C7000C00609D074450BD1DEF8080010F0405FC3
:100C800006D14FF08040C8E7086810F0405FF8D008
:100C9000002001B010BD000090F83C10012904BFF5
:100CA0000220704701688A6822F001028A60896820
:100CB000C90705D1016C41F2011291430131016470
:100CC000002180F83C10002070470000B0B50446B9
:100CD00000F0E6F8054640F20400C2F20000007899
:100CE000611C18BF044400BF00F0DAF8401BA042AA
:100CF000FAD3B0BD2DE9F04F83B000F1200200F12E
:100D00003E4741F20005009207F1FF77C4F2020569
:100D100007224FEAB726A84208BF042200254FF059
:100D200000084FF00009042E38BF4FEAB7220192A5
:100D30000AE000BF09F1010908F10208B9F1100F3A
:100D400005F1040500F0A2800F68012202FA09FEF5
:100D500017EA0E0AEED0D1F804C003220CF0030704
:100D60007E1E02FA08F4012E6FEA040B12D8846882
:100D7000CE6804EA0B0406FA08F63443846044683B
:100D800024EA0E06CCF3001404FA09F42643466064
:100D900004E000BF032F01D103271EE0C6688C6862
:100DA00006EA0B0604FA08F42643022FC66014D1A3
:100DB0006FF00302009E02EA590756F807C005F0DB
:100DC0001C040F220B69A2402CEA0202A3401A4322
:100DD000F251D1F804C00CF00307026807FA08F3D7
:100DE00002EA0B021A431CF4403F0260A2D0002228
:100DF00043F644030292C4F202031A6843F6004425
:100E000042F480421A601A68C4F2010402F480427B
:100E10000292029A29F003024FF6084C2244CFF6C0
:100E2000FF7C52F80C3005F00C070F26BE40B34390
:100E3000019E06FA07F73B4342F80C30A2684B6864
:100E400042EA0A0743F60C4CDE0258BF22EA0A07C0
:100E5000A760C4F2010CDCF800209E0242EA0A07F7
:100E600058BF22EA0A07CCF8007062689E0342EA83
:100E70000A0758BF22EA0A0767602268DB0342EAD2
:100E80000A0758BF22EA0A07276053E703B0BDE804
:100E9000F08F0000002A08BF09048161704700003C
:100EA00040F25410C2F2000000687047002804BFEE
:100EB00001207047F0B581B0044690F83D0028B994
:100EC000002084F83C00204600F086FB242084F8B3
:100ED0003D002068016821F001010160016841F4D2
:100EE00000410160016821F40041016000F006FD4D
:100EF000636848F2A16CC0F2010C40F60011C0F228
:100F00003D0163453CBF48F28041C0F21E0188426A
:100F100002D2012001B0F0BD4DF68361C4F21B3155
:100F2000A0FB01122168970CD1F804E04FF49676EB
:100F30002EF03F0545EA92454D60774348F6381656
:100F40000D6AC0F24106A7FB067625F03F07634510
:100F500038BF960C721C3A430A62CA6948F2A0660E
:100F60004CF6FF77C0F20106B34222EA07020BD823
:100F700001385B00B0FBF3F001306FF31F30042841
:100F800098BF04201BE000BFA768013857B119279C
:100F90007B43B0FBF3F001306FF31F3070B100F50D
:100FA000804007E003EB4303B0FBF3F001306FF345
:100FB0001F3018B100F5004001E000BF01201043D0
:100FC000C8610868D4E9072320F0C0001043184323
:100FD0000860886848F2FF3204F10C0790438CCF18
:100FE00018431043A6698860C86820F0FF003843A2
:100FF0003043C860086840F00100086000202021EC
:10100000206484F83D10206384F83E0001B0F0BDF8
:101010002DE9F04F83B01E46924688460446FFF7FE
:101020003FFF94F83D10202924D12168054600BFD8
:10103000886980071AD5FFF733FF401B21681A28FB
:10104000F6D388698007F3D500202021206384F837
:101050003D1084F83E00216C41F02001216484F8A9
:101060003C00022003B0BDE8F08F00BF94F83C00C4
:10107000012803D1022003B0BDE8F08F4FF0010931
:1010800084F83C900868C00703D1086840F001006C
:1010900008600868002720F400600860242084F8B5
:1010A0003D000020CFF6FF702764E06208F0FE08E4
:1010B000BAF1010F88BFD1464FF0A00A4FF0200BC4
:1010C00004E000BF01374F4500F0A280086800220D
:1010D00040F48070086020464FF0011133460095BF
:1010E00001F05EFD2168002856D1C1F81080FFF79D
:1010F000D7FE21684B694A6994F83D50A02D0546FA
:1011000005D013F0020008BF12F480601AD084F8F2
:101110003DB048690A68800742F400720A6045D40D
:101120006FF48060486100BF88698007CAD5FFF707
:10113000B7FE401B21681A28F6D388698007F3D5CB
:101140004AE000BFB6B100BFFFF7AAFE401BB042A5
:1011500088BF84F83DA021684A69486994F83D3009
:10116000A02BD4D012F0020208BF10F48060EBD0A4
:10117000CDE700BFFFF794FE84F83DA021684A69DF
:10118000486994F83D30A02BC1D012F00202BED1C4
:1011900010F48060EED0BAE70868C00544BF4FF491
:1011A00000702064032003B0BDE8F08F002002909F
:1011B00048690290886902900298886901E000BF3E
:1011C000806980071AD5FFF76BFE411B20681A293A
:1011D000F6D381698907F3D500202021206384F8A4
:1011E0003D1084F83E00216C41F02001216484F818
:1011F0003C00012003B0BDE8F08F00BF202084F840
:101200003D00002084F83C0003B0BDE8F08F00BF33
:10121000202084F83D00002084F83C00012003B029
:10122000BDE8F08F2DE9F04784B0994616460F4689
:101230000446FFF735FE94F83D10202927D10546D6
:10124000206800BF816989071CD5FFF729FE411B73
:1012500020681A29F6D381698907F3D50020202157
:10126000206384F83D1084F83E00206C04F13C0AB1
:1012700040F020002064022000218AF8001004B011
:10128000BDE8F087A2461AF83C1F012904D10220CC
:1012900004B0BDE8F08700BF01228AF8002003688F
:1012A000DDE90D180C9ADB0703D1036843F0010355
:1012B0000360036823F400630360222084F83D0088
:1012C000402084F83E000020206462626185608DC9
:1012D000394620850020CFF6FF70E0622046324676
:1012E0004B46CDE9008501F0B7F918B1012004B0F3
:1012F000BDE8F087208D08B3022813D0012835D12E
:1013000021680A6822F480620A60002203924A6916
:1013100003928A690392039A0A6842F400720A608F
:101320002CE000BF21680A6822F480620A600A6823
:1013300042F400620A60002203921AE00020039047
:10134000206841690391816903910399016841F41F
:1013500000710160202084F83D00002084F83E00E8
:1013600000218AF8001004B0BDE8F0870021039145
:1013700021684A6903928969039103990427C0F29D
:1013800001070CE010690870606A218D013060620D
:10139000481E2085618D013961850104DAD080B253
:1013A00003280FD802284AD001282DD120464146D3
:1013B0002A4601F047FD002898D12068616A00693B
:1013C000E1E700BF204641462A4601F03BFD0028E8
:1013D0007FF48CAF2068616A00690870606A2268D7
:1013E000411C208D616201382085638D013B63853E
:1013F00053695B07D1D580B20328C3D1106820F4AC
:1014000080601060BEE700BF204639460022434698
:10141000009501F0C5FB00287FF468AF2068616A81
:10142000026822F48062026000690870606A218D9F
:1014300001306062481E2085608D0138608520463D
:10144000394600224346009501F0AAFB00287FF4AC
:101450004DAF2068616A026842F400720260006960
:101460000870606A2268411C6162218D0139218502
:10147000618D013961851169417085E72DE9F0437E
:1014800083B0994616460F460446FFF709FD94F8C7
:101490003D10202924D10546206800BF81698907B5
:1014A0001AD5FFF7FDFC411B20681A29F6D3816984
:1014B0008907F3D500202021206384F83D1084F8AB
:1014C0003E00216C41F02001216484F83C000220A0
:1014D00003B0BDE8F08300BF94F83C10012903D1AC
:1014E000022003B0BDE8F083012284F83C200368A9
:1014F000DDE90B180A9ADB0703D1036843F0010307
:101500000360036823F400630360212084F83D0036
:10151000402084F83E000020206462626185608D76
:10152000394620850020CFF6FF70E0622046324623
:101530004B46CDE9008501F019F918B1012003B03F
:10154000BDE8F083208D98B9204641462A4601F037
:10155000C9FA88B3206C0428F0D12068016841F4EE
:1015600000710160012003B0BDE8F0830004EBD0FE
:10157000204641462A4601F0ADFC0028EAD1616AC6
:101580002268084610F8013B1361238D6062581EE3
:101590002085678D013F678557697F07E6D507047A
:1015A000E4D048781061881C6062981E2085618DA7
:1015B00001396185DAE700BF2068016841F40071F4
:1015C0000160202084F83D00002084F83E0084F86B
:1015D0003C0003B0BDE8F083B0B586B045F20041F1
:1015E0000068C4F20001002488420594CDE9034458
:1015F0000294019402D006B0B0BD00BF43F630059E
:101600000094C4F20205286840F0020028602868AF
:1016100000F0020000900098C02001901220CDE957
:101620000204032004900420059001F5D83001A99C
:10163000FFF760FB0094286940F4001028612869D6
:1016400000F400100090009806B0B0BD40F2040015
:1016500040F25411C2F20000C2F2000100780A68A0
:10166000104408607047000080B543F60040C4F2A3
:101670000200016841F400710160016841F4806179
:101680000160016841F480710160032000F074F88A
:10169000002000F005F800F027F8002080BD0000D1
:1016A00070B540F20406C2F2000640F20C01327836
:1016B000C2F200014FF47A730968B3FBF2F20446F8
:1016C000B1FBF2F1084600F04DFB0F2C4FF0010585
:1016D00008D838B94FF0FF3021460022002500F02D
:1016E0001FF87460284670BD82B0002043F64001A8
:1016F0000190C4F202014A6842F480424A604A689A
:1017000002F480420192019A0090086840F08050F3
:101710000860086800F080500090009802B07047A0
:1017200010B54EF60C5CCEF2000CDCF80030C3F3C2
:10173000022E8EF00704042C28BF0424BEF10303FC
:101740004FF0FF3E0EFA04F438BF0023A143994046
:101750000EFA03F39A43114300F00F0200F16043C5
:101760000901043A03F564436244002848BF02F1CA
:101770000C03197010BD00004EF60C51CEF20001A2
:101780000A684FF6FF031A4060F30A2242F08060B5
:1017900040F0FD7008607047002804BF01207047CA
:1017A0002DE9F04143F60808C4F202080446D8F8CF
:1017B000F8030D4600F00700884207D288F8F85376
:1017C000D8F8F80300F00700A84277D12068810715
:1017D00017D5410705D5D8F8001041F4E051C8F8F5
:1017E0000010010705D5D8F8001041F46041C8F891
:1017F0000010D8F80010A26821F0F0011143C8F8D9
:101800000010C00740D1D8F8F80300F00700A84244
:1018100007D988F8F853D8F8F80300F00700A84271
:101820004CD12068410707D5D8F80010E26821F4B0
:10183000E0511143C8F80010000708D5D8F800009F
:10184000216920F4604040EAC100C8F8000000F0BF
:101850007DF8D8F8001044F26862C1F30311C0F6B5
:101860000002515C40F20C0220FA01F140F2080043
:10187000C2F200000068C2F200021160FFF710FF20
:101880000020BDE8F08100BF6068811E022907D2F8
:1018900058F8081C89015CBF0120BDE8F08111E007
:1018A000012807D158F8081C89035CBF0120BDE856
:1018B000F08107E058F8081C890703D40120BDE82F
:1018C000F08100BFD8F8001021F003010843C8F8E8
:1018D0000000FFF7E5FA064641F28837D8F8000025
:1018E000616800F00C00B0EB810F8CD0FFF7D8FAE4
:1018F000801BB842F2D90320BDE8F08140F20C0011
:1019000043F60801C2F20000C4F20201006809684F
:1019100044F27862C1F38221C0F60002515CC840F3
:101920007047000040F20C0043F60801C2F20000CC
:10193000C4F202010068096844F27862C1F34231DE
:10194000C0F60002515CC8407047000010B543F675
:101950000404C4F20204606800F00C0142F200408A
:101960000829C0F2F40007D0042918BF10BD41F2C5
:101970000020C0F27A0010BD216801F03F0221680A
:1019800023684902C3F3881106D4A1FB0001002398
:10199000FEF71CFC07E000BF41F20020C0F27A0015
:1019A0004843B0FBF2F021680222C1F3014102EB8F
:1019B0004101B0FBF1F010BD002804BF01207047C9
:1019C0002DE9F04182B00446007843F60006C007D6
:1019D000C4F202060CD0B06800F00C00042840F0FD
:1019E00081803068800303D56068002800F068813A
:1019F000207880071BD5B06810F00C0F09D0B068B4
:101A000000F00C00082840F087807068400200F168
:101A100083803068800703D5E068012840F050815A
:101A20003068216920F0F80040EAC1003060207879
:101A3000000713D4207840072AD4A569002D00F0B0
:101A40003A81B06800F00C00082840F0A580012D14
:101A500040F00E81012002B0BDE8F08160690028ED
:101A600000F082800020C4F247200121C0F8801ECF
:101A7000FFF716FA054600BF706F8007DAD4FFF74C
:101A80000FFA401B0228F7D9032002B0BDE8F0810D
:101A9000306C5FEAC0080AD400200190306C40F03E
:101AA00080503064306C00F080500190019847F213
:101AB0000007C4F200073868C00547D4386840F40E
:101AC00080703860FFF7ECF9054600BF3868C00544
:101AD0003CD4FFF7E5F9401B0228F7D9032002B0F8
:101AE000BDE8F081B06800F00C00082803D17068F0
:101AF00040023FF576AF61683068B1F5803F07D0AE
:101B0000B1F5A02F40F09A8040F48020306030681A
:101B100040F4803030609AE0E068002840F2000035
:101B2000C4F247205CD001210160FFF7B9F90546F6
:101B3000306880073FF574AFFFF7B2F9401B022809
:101B4000F6D9032002B0BDE8F08100BFA168306F74
:101B5000012905D0052955D140F004003067306FC8
:101B600040F00100306756E00020C4F24720002119
:101B7000C0F8801EFFF794F9054600BF706F80071C
:101B80007FF558AFFFF78CF9401B0228F6D90320E8
:101B900002B0BDE8F08100BF0027C4F24727002053
:101BA0003866FFF77DF9022D05460DD130688001BA
:101BB00040F18A80FFF774F9401B02284FF00300C0
:101BC000F4D902B0BDE8F0813068800173D5FFF729
:101BD00067F9401B02284FF00300F5D9F1E700BF79
:101BE00000210160FFF75CF9054600BF30688007FF
:101BF0007FF51DAFFFF754F9401B02284FF003009B
:101C0000F4D9DEE720F001003067306F002920F0C2
:101C1000040030677AD0FFF743F9054641F2883770
:101C2000306F800700F18480FFF73AF9401BB8421B
:101C3000F6D9032002B0BDE8F08100BF20F4803067
:101C400030603068002920F4802030607AD0FFF7BF
:101C500027F90546306880033FF5CAAEFFF720F943
:101C6000401B6428F6D9032002B0BDE8F08100BF14
:101C70007068E16900F480028A4221D1216A00F093
:101C80003F028A421CD147F6C071626A0140B1EB43
:101C9000821F15D1A16A4FF6FF73C903994300F45F
:101CA0004032A1F580318A420AD1E16A00F07060C9
:101CB000B0EB016F04D1002002B0BDE8F08100BF9D
:101CC000012002B0BDE8F08104F11C052FCD0843CE
:101CD00040EA8210D9034FF6FF729143A1F580319B
:101CE00040EA05600843706001203866FFF7D8F8C5
:101CF000044600BF30688001DDD4FFF7D1F8001B37
:101D000002284FF00300F5D95BE700BFFFF7C8F8E2
:101D1000054641F2883700BF306F800708D5FFF7CE
:101D2000BFF8401BB8424FF00300F5D949E700BFA8
:101D3000B8F1000F3FF581AE306C20F08050306478
:101D40007BE600BFFFF7ACF8054600BF30688003B4
:101D50007FF54EAEFFF7A4F8401B64284FF0030058
:101D6000F4D92EE7411E0020B0EB116F1CBF0120FB
:101D700070474EF21002CEF2000251604EF623512F
:101D8000CEF20001F0230B700721906011607047C4
:101D900090F83C20012A04BF02207047B0B501F141
:101DA00008053CCDD1E900CE23F47C5322F47052D7
:101DB0001A432EF4F0431A432CF4E0431A4324F45C
:101DC000C0431A432A43C96922F48042036811437D
:101DD0005964002180F83C100020B0BD90F83C20F0
:101DE000012A4FF0020241D010B580F83D20026870
:101DF000D2F804E0D2F808C00C682EF07003234338
:101E000040F6FF34C4F20004A242536010DCB2F189
:101E1000804F1ED040F20043C4F200039A4218D013
:101E200040F60003C4F200039A4212D016E000BF4D
:101E300040F60043C4F200039A420AD044F2000381
:101E4000C4F201039A4204D00023C4F201039A426F
:101E500004D149682CF080031943916001210022CC
:101E600080F83D1080F83C20BDE8104010467047D7
:101E7000002804BF0120704710B5044690F83D00CB
:101E800028B9002084F83C00204600F01FF802200A
:101E900084F83D002068211D01F014FC012084F825
:101EA000460084F83E0084F83F0084F8400084F83F
:101EB000410084F8420084F8430084F8440084F828
:101EC000450084F83D00002010BD0000006800219E
:101ED000C4F20101884218BF704781B00020009011
:101EE00043F64400C4F20200016841F001010160C0
:101EF000006800F001000090009801B070470000F9
:101F000090F83C20012A4FF002026CD080B580F896
:101F10003D20D0F800C04FF67772DCF8083023EA95
:101F20000202CCF808200B684F2B29DC1F2B45DD63
:101F3000202B46D0302B44D0402B40F0AF80D1F83E
:101F400004E0C968DCF82030DCF8202022F001022F
:101F5000CCF82020DCF8182022F0F00242EA01112F
:101F600023F00A0242EA0E02CCF81810CCF8202026
:101F7000DCF8081041F0470121F0300128E000BFF3
:101F80006F2B33DDB3F5005F74D0B3F5805F21D0E4
:101F9000702B40F08380D1E901E3C968DCF80820A8
:101FA00043EA0E0322F47F4243EA01211143CCF8B5
:101FB0000810DCF8081041F0770109E00BB1102B94
:101FC0006CD1DCF8081021F07001194341F00701D1
:101FD000CCF808100022012180F83D10002180F883
:101FE0003C10BDE880401046704700BF502B21D008
:101FF000602B53D1D1F804E0C968DCF82030DCF85C
:10200000202022F01002CCF82020DCF8182022F446
:10201000704242EA013123F0A00242EA0E12CCF8EB
:102020001810CCF82020DCF8081041F0670121F0EE
:102030001001CDE7D1F804E0C968DCF82030DCF805
:10204000202022F00102CCF82020DCF8182022F019
:10205000F00242EA011123F00A0242EA0E02CCF831
:102060001810CCF82020DCF8081041F0570121F0BE
:102070002001ADE7D1E901E3C968DCF8082043EAB3
:102080000E0322F47F4243EA01211143CCF80810E9
:10209000DCF8081041F480419AE700BF01229AE77A
:1020A00090F83C30012B04BF022070474FEAB20287
:1020B000032A00F2ED802DE9F043DFE802F003A3EC
:1020C000397300BF036800261D6A1A6AC4F201064C
:1020D00022F001021A621A465C6852F818CFB34225
:1020E0008E68D1F800E025F0020545EA06050CD11E
:1020F000CE68D1E9057824F4407425F00C0526F06B
:1021000004063C43354344EA08042CF0730747EACD
:102110000E075C609F614F6809695F631D629F697C
:1021200047F008079F619F6927F004079F61A4E0BB
:10213000036800261D6A1A6AC4F2010622F480723E
:102140001A621A46D3F804C052F81CEFB3428E68E4
:102150000C6825F4007545EA06250FD1CE68D1E953
:102160000598360240F2FF4725F44065BE433543EB
:102170002CF4405748EA090647EA061C2EF073077C
:102180002743C3F804C0DF614F680969DF631D623C
:10219000DF6947F00807DF61DF6927F00407DF61C7
:1021A0006BE000BF03680027D3F820C01A6AC4F2AE
:1021B000010722F480521A621A465C6852F81C5FCA
:1021C000D1F800E08E68BB4204D14F6924F480440A
:1021D00044EA87142CF4005747EA063725F4E6460C
:1021E00046EA0E265C60DE614E6809691E641F6265
:1021F000DF6947F40067DF61DF6927F48067DF612B
:102200003AE000BF036800261D6A1A6AC4F201069C
:1022100022F010021A621A46D3F804C052F8184F7E
:10222000B3428E68D1F800E025F0200545EA061596
:102230000FD1CE68D1E905986FF0400725F0C005B1
:1022400007EA061635432CF4406748EA090647EAD0
:10225000860C24F4E64444EA0E27C3F804C09F61C8
:102260004F6809699F631D629F6947F400679F611A
:102270009F6927F480679F61090213681943116001
:102280000021BDE8F043002280F83C20084670475A
:102290000121002280F83C2008467047002804BF36
:1022A0000120704710B5044690F83D0028B9002081
:1022B00084F83C00204600F01FF8022084F83D001E
:1022C0002068211D01F0FEF9012084F8460084F801
:1022D0003E0084F83F0084F8400084F8410084F810
:1022E000420084F8430084F8440084F8450084F8F0
:1022F0003D00002010BD000070470000C1B104295E
:1023000008D0082914BF41224022825C012A05D04E
:1023100016E000BF3F22825C012A11D10222082967
:1023200010D0042914BF80F8412080F83F200BE032
:1023300090F83E20012A03D1022280F83E2003E0DB
:102340000120704780F84020006801F01F01012241
:10235000036A8A4023EA02010162036A4421C4F24B
:1023600001011A43A1F144039842026216D040F6DB
:10237000FF31C4F2000188421ADCB0F1804F28D04E
:1023800040F20041C4F20001884222D040F6000130
:10239000C4F2000188421CD022E000BF0A6842F467
:1023A00000420A6040F6FF31C4F200018842E4DDD9
:1023B00040F60041C4F2000188420AD044F2000114
:1023C000C4F20101884204D00021C4F20101884214
:1023D00006D1816801F00701062904BF002070477B
:1023E000016841F00101016000207047002804BF2E
:1023F0000120704710B5044690F8410028B900202C
:1024000084F84000204600F021F8242084F84100A0
:102410002068C16821F40051C160204601F0D2F962
:102420002068016921F490410161416921F02A018C
:102430004161C16841F40051C16000202021606405
:1024400084F8411084F84210606310BD80B586B0F6
:1024500044F200410068C4F2000100228842059263
:10246000CDE903220292019202D006B080BD00BFE6
:1024700043F630000092C4F20200036943F40033D3
:102480000361036903F400330093009B0092036827
:1024900043F001030360006800F001000090009821
:1024A0000C2001900220CDE902020720059001F5E1
:1024B000DE3001A90492FEF71DFC06B080BD0000CD
:1024C0002DE9F04381B0044690F84100202809D15D
:1024D00000294FF0010018BF002A07D101B0BDE864
:1024E000F08300BF022001B0BDE8F08300206064EB
:1024F00021201D460E4684F841001746FEF7D0FC09
:10250000A784E784A1688146B1F5805F02D1206984
:1025100000285DD037460020E28C2168002A5DD07B
:102520006A1C24D0002D4AD0804600BF08680006EF
:1025300008D4FEF7B5FCA0EB0900A8427AD82168C0
:10254000C868F3E717B117F8010B04E038F8020B7D
:1025500000276FF35F204860E08C0138E084E08C56
:102560000028E3D13AE000BF0A68120609D40A68DD
:10257000120606D40A6812065CBF0A685FEA0262A5
:10258000F2D51FB117F8012B05E000BF30F8022B80
:1025900000276FF35F224A60E28C013AE284E28C0A
:1025A000002AE4D11AE000BF30F8022B00276FF3B5
:1025B0005F224A60E28C013AE284E28C72B10A68DE
:1025C000120635D5002FEFD017F8012BF1E700BF29
:1025D00000273046E28C2168002AA1D10868400615
:1025E0001ED42DB3681C14D1086840062AD408688C
:1025F000400627D40868400624D4086840064FF0F7
:102600000000F1D50DE000BF2068C16800684006F9
:1026100018D4FEF745FCA0EB0900A842F4D909E064
:102620000020202184F8411001B0BDE8F08300BFF4
:10263000FEF736FC0320202184F8411001B0BDE8EC
:10264000F08300BF0020202184F8411001B0BDE8D4
:10265000F0830000FEE700002DE9F04782B0044659
:1026600000689A460B9D0A9E0368914643F4806277
:10267000026002680F4642F48071016020464FF00C
:10268000011100223346009500F08AFA50B120680B
:102690000068C00544BF4FF400702064032002B0FE
:1026A000BDE8F08740F202082068C0F2010807F098
:1026B000FE0707612046414632462B4600F056FB96
:1026C00020B1012002B0BDE8F08700BF00200190DA
:1026D00020682A464169019180693146019001983C
:1026E000204600F0F7FBB0B92068BAF1010F09D01D
:1026F0004FEA19210161204631462A4600F0EAFBE3
:1027000048B920685FFA89F10161204631462A46BE
:1027100000F0E0FB60B1206C0428D2D12068016891
:1027200041F400710160012002B0BDE8F08700BFF4
:10273000206800220168334641F480710160204620
:102740004FF00111009500F02BFA00289FD147F0BF
:10275000010C27682046414632462B46C7F810C078
:1027600002B0BDE8F04700F001BB00002DE9F043E6
:1027700083B0044600680F4601680A9D0B9E41F431
:10278000807199469046016020464FF00111002269
:102790002B46009600F004FA50B120680068C0058E
:1027A00044BF4FF400702064032003B0BDE8F08301
:1027B000206807F0FE0101610221C0F201012046FC
:1027C0002A46334600F0D2FA20B1012003B0BDE81A
:1027D000F08300BF002002902068324641690291D8
:1027E0008069294602900298204600F073FB58B198
:1027F000206C0428E9D12068016841F4007101606F
:10280000012003B0BDE8F0832068B9F1010F0AD0C0
:102810004FEA1821016120462946324600F05AFB52
:102820000028E5D120685FFA88F10161002003B03B
:10283000BDE8F08310B5A6A001F004FF40F27000DF
:10284000C2F20000802102226423FEF7E1FB40F285
:102850001004C2F2000448B92068012806D144F2ED
:10286000FA60C0F60000402101F072FA40F27000F8
:10287000C2F20000822102226423FEF7C9FB48B99C
:102880002068012806D144F2FA60C0F60000412118
:1028900001F05EFA40F27000C2F2000084210222D0
:1028A0006423FEF7B5FB48B92068012806D144F23D
:1028B000FA60C0F60000422101F04AFA40F27000CE
:1028C000C2F20000862102226423FEF7A1FB48B970
:1028D0002068012806D144F2FA60C0F600004321C6
:1028E00001F036FA40F27000C2F2000088210222A4
:1028F0006423FEF78DFB48B92068012806D144F215
:10290000FA60C0F60000442101F022FA40F27000A3
:10291000C2F200008A2102226423FEF779FB48B943
:102920002068012806D144F2FA60C0F60000452173
:1029300001F00EFA40F27000C2F200008C21022277
:102940006423FEF765FB48B92068012806D144F2EC
:10295000FA60C0F60000462101F0FAF940F270007A
:10296000C2F200008E2102226423FEF751FB48B917
:102970002068012806D144F2FA60C0F60000472121
:1029800001F0E6F940F27000C2F20000902102224C
:102990006423FEF73DFB48B92068012806D144F2C4
:1029A000FA60C0F60000482101F0D2F940F2700050
:1029B000C2F20000922102226423FEF729FB48B9EB
:1029C0002068012806D144F2FA60C0F600004921CF
:1029D00001F0BEF940F27000C2F200009421022220
:1029E0006423FEF715FB48B92068012806D144F29C
:1029F000FA60C0F600004A2101F0AAF940F2700026
:102A0000C2F20000962102226423FEF701FB48B9BE
:102A10002068012806D144F2FA60C0F600004B217C
:102A200001F096F940F27000C2F2000098210222F3
:102A30006423FEF7EDFA48B92068012806D144F274
:102A4000FA60C0F600004C2101F082F940F27000FB
:102A5000C2F200009A2102226423FEF7D9FA48B993
:102A60002068012806D144F2FA60C0F600004D212A
:102A700001F06EF940F27000C2F200009C210222C7
:102A80006423FEF7C5FA48B92068012806D144F24C
:102A9000FA60C0F600004E2101F05AF940F27000D1
:102AA000C2F200009E2102226423FEF7B1FA002840
:102AB00018BF10BD2068012808D144F2FA60C0F6A2
:102AC00000004F21BDE8104001F042B910BD00BF29
:102AD0005363616E6E696E6720493243206275737D
:102AE0002E2E2E0070B50368044653F8140F4007CD
:102AF00011D40E46481C29D086BB00BF186840057B
:102B000027D4FEF7CDF9236853F8140F400737D5C3
:102B100018684007F2D5002070BD00BF1868400754
:102B2000F9D41868400514D418684007F3D418681D
:102B300040050ED418684007EDD41868400508D445
:102B4000186840074FF0000048BF70BD1868400586
:102B5000E4D56FF480601860042012E0154603E0AD
:102B600053F8140F4007D6D418684005F1D4FEF787
:102B700097F9401B2368B042F2D958694007EFD457
:102B8000202000212022216384F83D2084F83E107B
:102B9000226C10432064012084F83C1070BD0000BA
:102BA0002DE9F041054600681E46144601F47F02F7
:102BB00001338FB242D0DDF81880B2F5803F40F08B
:102BC000878040693840C01BB0FA80F04009A042BD
:102BD00040F0C8804EB924E040693840C01BB0FACC
:102BE00080F04009A04240F0BD80FEF759F9A0EB0B
:102BF00008012868B142EFD941693940C91BB1FACF
:102C000081F14909A142E7D19BE000BF406938400A
:102C1000C01BB0FA80F04009A0424FF0000040F025
:102C2000A280FEF73DF9286841693940C91BB1FA15
:102C300081F14909A142E9D183E000BFB2F5803FAB
:102C400024D100BF41693940C91BB1FA81F149095A
:102C5000A14240F0878041693940C91BB1FA81F136
:102C60004909A14240F07E8041693940C91BB1FA4F
:102C700081F14909A14275D141693940C91BB1FAB5
:102C800081F14909A142DDD06CE000BF8169394082
:102C9000C91BB1FA81F14909A14263D18169394067
:102CA000C91BB1FA81F14909A1425BD1816939405F
:102CB000C91BB1FA81F14909A14253D18169394057
:102CC000C91BB1FA81F14909A142DFD04AE000BF36
:102CD00080693840C01BB0FA80F04009A04241D161
:102CE00046B923E080693840C01BB0FA80F0400943
:102CF000A04237D1FEF7D4F8A0EB08012868B14212
:102D0000F0D981693940C91BB1FA81F14909A14261
:102D1000E8D116E080693840C01BB0FA80F0400965
:102D2000A0424FF0000018BFBDE8F081FEF7B8F8F0
:102D3000286881693940C91BB1FA81F14909A1426A
:102D4000E8D100202021286385F83D1085F83E0059
:102D5000296C41F02001296485F83C000120BDE880
:102D6000F08100BF0020BDE8F0810000F0B581B027
:102D7000044600681D4643698FB203EA0701B94261
:102D800002D1002001B0F0BD4169164601323CD0AD
:102D9000490512D47EB300BFFEF782F8411B2068BC
:102DA000B14203D941693940B9422BD14169394017
:102DB000B942E6D041694905EED5016841F4007198
:102DC00001606FF4806141610420002120222163B1
:102DD00084F83D2084F83E10226C1043206484F86F
:102DE0003C10012001B0F0BD41693940B942C8D062
:102DF00041694905E1D4FEF753F82068416939403B
:102E0000B942F1D02020E0E741694905D5D44169B4
:102E10003940B942B5D041694905CED441693940FC
:102E2000B942AED041694905C7D441693940B94278
:102E3000A7D041694905C0D441693940B942E3D1BD
:102E40009FE7000070B504460068154650F8143F2F
:102E50005A063DD40E4629B926E000BF50F8141F8B
:102E6000490635D40168C90621D4FEF719F8411B7B
:102E70002068B142F2D941694906EFD400202021EF
:102E8000206384F83D1084F83E00206C40F0200060
:102E900018E000BFFEF704F8206850F8141F490638
:102EA000ECD50168490613D40168C906F2D56FF064
:102EB0001001016000202021206384F83D1084F877
:102EC0003E00206C2064002084F83C00012070BD8E
:102ED000002070BD70B50368044653F8140F000657
:102EE00011D40E46481C29D086BB00BF1868400587
:102EF00027D4FDF7D5FF236853F8140F000637D504
:102F000018680006F2D5002070BD00BF18680006E2
:102F1000F9D41868400514D418680006F3D418686A
:102F200040050ED418680006EDD41868400508D492
:102F3000186800064FF0000048BF70BD18684005D3
:102F4000E4D56FF480601860042012E0154603E0B9
:102F500053F8140F0006D6D418684005F1D4FDF7D5
:102F60009FFF401B2368B042F2D958690006EFD496
:102F7000202000212022216384F83D2084F83E1087
:102F8000226C10432064012084F83C1070BD0000C6
:102F900070B586B040F27000C2F2000080210222BB
:102FA0004FF0FF3302264FF0FF35FEF731F828B11E
:102FB00077A006B0BDE8704001F044BB7EA0802140
:102FC00000F0C6FE40F21804C2F2000441F26200B2
:102FD000208049F63970ADF8100004A8CDE900064C
:102FE00040F27000C2F2000080210022012302950D
:102FF000FEF744FA40B144F28060C0F600000021C0
:1030000000F0A6FE10E000BF40F21000C2F2000087
:103010000068012808D144F24170C0F60000002188
:1030200043F69F1200F094FE0A20FDF74FFE0520A4
:10303000FDF74CFE24880DF1120160BAADF81200C4
:103040000220CDE9001040F270004FF0FF36C2F2CE
:1030500000008021052201230296FEF70FFA38B105
:1030600044F28060C0F60000052100F071FE0EE021
:1030700040F21000C2F200000068012807D144F2BB
:103080004170C0F600000521224600F061FE0A20D2
:10309000FDF71CFE0A20FDF719FE022005A9CDE967
:1030A000001040F270004FF0FF36C2F200008021A5
:1030B000052201230296FEF7B5F838B144F67300F5
:1030C000C0F6000001F0BEFA002416E00A20FDF769
:1030D000FDFD40F21001BDF81400C2F200010968C4
:1030E00000BA01294FEA104407D144F21470C0F627
:1030F00000000521224600F02BFE02200DF11601F2
:10310000CDE9001040F270004FF0FF36C2F200002F
:103110008021002201230296FEF784F8A0B144F634
:103120007300C0F6000001F08DFA44F26F70C0F633
:103130000000002100F00CFE44F60600C0F600007E
:1031400001F080FA1EE000BF0A20FDF7BFFD40F24B
:103150001000C2F200000068BDF8161001284DBA38
:1031600007D144F21470C0F6000000212A4600F096
:10317000EFFD44F26F70C0F60000294600F0E8FD54
:10318000002DD9D017A0214600F0E2FD06B070BD99
:103190004552524F523A20494E41323139206E6FDA
:1031A00074206465746563746564206F6E204932B1
:1031B0004320627573210000535543434553533AEE
:1031C00020494E4132313920646576696365206457
:1031D00065746563746564206174203078255821B6
:1031E0000A000000494E4132313920496E69746944
:1031F000616C697A65642C2043616C6962726174E8
:10320000696F6E2052656769737465723A2025751F
:103210000A000000B0B584B040F228000123002469
:10322000C2F2000042F20001C0F60073C4F20101D4
:103230000125C0E90A34032303944FF48032057654
:1032400080F82040C36180F8304080E81600C0E973
:1032500003454561FDF734FB002818BFFDF786FAEA
:103260000520029040F22800C2F200006946CDE934
:103270000045FDF77FFA002818BFFDF777FA012017
:1032800000900220019040F22800C2F2000069463E
:10329000FDF770FA002818BFFDF768FA11200090BA
:1032A0000320019040F22800C2F200006946FDF7B9
:1032B00061FA002818BFFDF759FA04B0B0BD00004C
:1032C000F0B587B0002643F630000696CDE90466D7
:1032D000CDE902660196C4F202000168002441F0C3
:1032E000040101600168C4F2020401F004010191CB
:1032F000019901960168002241F080010160016896
:10330000202701F08001019101990196016841F0A7
:1033100001010160016801F001010191019901962B
:10332000016841F0020101600068202100F0020004
:10333000019001982046FDF7ADFD4FF4005002903A
:103340004FF4041002ADCDE9030604F500602946F0
:10335000FDF7D0FC0120CDE903062046294602975F
:103360000596FDF7C7FC07B0F0BD000080B540F240
:10337000700045F20041C2F20000C4F2000141F6C3
:10338000802200234FF4804CC0F2060280E80E0039
:10339000C0E9033CC0E90533C0E90733FDF786FD0A
:1033A000002808BF80BDBDE88040FDF7DFB9000000
:1033B00070B59CB0002540F2C400C4F201050021A4
:1033C000C2F2000053224FF47A731591CDE9131124
:1033D0001191CDE90F11CDE90D11CDE90B11CDE919
:1033E0000911CDE90711CDE90511CDE90311CDE9A9
:1033F0000111C0E90052C0E90213C0E90411816162
:10340000FEF736FD002818BFFDF7B0F94FF48050E5
:10341000129040F2C400C2F2000012A9FEF770FD43
:10342000002818BFFDF7A2F940F2C400C2F2000064
:10343000FEF734FF002818BFFDF798F940F2C400EA
:103440000024C2F2000010A9CDE91044FEF7C6FC2A
:10345000002818BFFDF78AF96020CDE9090440F281
:10346000C400C2F2000009A90022CDE90B44CDE955
:103470000D440F94FEF714FE002818BFFDF776F9EF
:1034800040F2C4044FF40050C2F20004002606903B
:1034900001A920460596CDE90366CDE901660896A7
:1034A000FEF776FC002818BFFDF760F920681B9630
:1034B000A842CDE919661896179601D01CB070BDC8
:1034C000002043F630011690C4F202010A6842F06F
:1034D00001020A60096801F00101169116994FF482
:1034E000807117910221CDE918101A9001201B90CC
:1034F00005F5803017A9FDF7FDFB1CB070BD00007D
:1035000080B540F20C1044F20041C2F20000C4F257
:10351000000100234FF00C0C4FF4E13280E80E0064
:10352000C0E90333C0E905C3C361FEF75FFF0028AC
:1035300008BF80BDBDE88040FDF718B9FEE7000078
:10354000FEE7000070470000F0B581B040F22805AA
:10355000044600261E27C2F2000500BF2846FDF7DC
:1035600013FB28464FF0FF31FDF78EFA2846FDF792
:10357000A3F906442846FDF78FFB0120FDF7A6FBC3
:103580002846FDF701FB28464FF0FF31FDF77CFA96
:103590002846FDF791F92846FDF77EFB0120FDF74F
:1035A00095FB2846FDF7F0FA28464FF0FF31FDF76E
:1035B0006BFA2846FDF780F92846FDF76DFB0120E0
:1035C000FDF784FB013FC9D100EE106AB8EE400A56
:1035D000B3EE0E1A80EE010A9FED071A9FED072A3F
:1035E00020EE010A80EE020A9FED051A20EE010A84
:1035F00084ED000A01B0F0BD3333534000F07F4545
:103600008C2EBA3F70470000FEF720B870B592B01C
:1036100006AC20463021FCF711FE002543F64000A1
:103620000595CDE90355CDE901550095C4F2020099
:103630000168022641F080510160006800F080506E
:103640000090009847F200000095C4F20000016865
:1036500066F38F310160006800F4404000900098EC
:103660000120099010200A900E904FF4A8700F903E
:10367000042010900720119020460696CDE90C6595
:10368000FEF79AF910B172B6FEE700BF0F20CDE940
:1036900001064FF48050CDE9040501A802210395ED
:1036A000FEF77AF810B172B6FEE700BF12B070BD37
:1036B0004EF68850CEF20000016841F470010160BE
:1036C0007047000010B540F2FF7E0368C4F2000EA0
:1036D00040F2000C7045C4F2010C1DDD40F6000202
:1036E000C4F20002904220D060451ED040F6004255
:1036F000C4F20002904218D04FF6FF72C4F20002EA
:1037000090421CDC704525DCB0F1804F3AD040F28D
:103710000042C4F2000233E0B0F1804F05D040F225
:103720000042C4F200029042E6D14A6823F07003DE
:1037300013434FF6FF72C4F200029042E2DD44F2FE
:10374000FF32C4F20102904210DC60451AD044F20C
:10375000000213E040F60002C4F20002904211D0D1
:1037600040F60042C4F200020AE000BF44F6000244
:10377000C4F20102904205D044F20042C4F20102B8
:10378000904203D1CA6823F44073134323F08002AC
:103790004B69D1F800E08C681A4360450260C4624E
:1037A000C0F828E002D10969CCF83010012141614C
:1037B0000169C90708BF10BD016921F0010101615C
:1037C00010BD0000B0B50446006804F108030ECB3C
:1037D0000569194325F440552A4302616269E3698A
:1037E0001143C268194349F20C639A431143C16003
:1037F0004169A26921F4407141F20043114340F450
:103800008062C4F201039A42416103D1FEF78AF853
:1038100002E000BFFEF772F8E1694FF69C7563683D
:103820001922C0F6FF75B1F5004FA0FB02011FD1B0
:103830005A00DB0FFCF7CAFC48F21F51C5F2EB112E
:10384000A0FB01235A0905F1805302FB0300322338
:1038500003EBC000A0FB01014FF4F87000EA111067
:1038600000EB0210C1F34211084421688860B0BD2A
:103870009A009B0FFCF7AAFC48F21F51C5F2EB110E
:10388000A0FB01235A0902FB0500322303EB0010C1
:10389000A0FB0101F02000EA511000EB0210C1F37F
:1038A0004311084421688860B0BD0000FEE70000B5
:1038B00080B582B0019040F20C10C2F2000001A964
:1038C00001224FF6FF73FEF7FBFD019802B080BDA9
:1038D0008AB0FDF7C9FEFFF799FEFFF7F1FCFFF78D
:1038E00099FCFFF743FDFFF763FDFFF709FEFEF7C5
:1038F000A1FFFFF74DFB40F2C404C2F200042046D2
:103900000021FEF7FBFC40F2180BC2F2000B9FED0A
:10391000E48ADBF80400216840F270089FEDE19A28
:103920009FEDE1AA9FEDE1BA9FEDE1CA9FEDE1DADB
:1039300040F2100A9FEDE0EA9FEDD3FADFEDD38A63
:10394000DFEDD39A4FF0FF3502260DF12607C2F2C4
:103950000008C2F2000AF0EE48AA0024486310E012
:10396000C16ACBF80410416344F2F870C0F600005D
:1039700000F0EEF94FF47A70FDF7A8F90024F0EEAC
:1039800048AA4046802101220123CDE90076029514
:10399000FDF748FC0A20FDF799F9BDF82600C0BAEA
:1039A00000EE100AB8EEC00A20EE090A80EE0A0AFC
:1039B000142080EE0B0A7AEE80AAFDF787F9013415
:1039C000962CDED10DF12200CDE900064046802183
:1039D000042201230295FDF725FC38B144F673005B
:1039E000C0F6000000F02EFE002413E00A20FDF7D0
:1039F0006DF9BDF82200DAF8001000BA01294FEA8B
:103A0000104421D144F21470C0F600000421224673
:103A100000F09EF924B2DAF8000000EE104AB8EE89
:103A2000C00A012860EE0EBA16D11BEE900AFCF710
:103A300010FC024644F2CF600B46C0F6000021465F
:103A400000F086F908E000BF20B200EE100AB8EEE0
:103A5000C00A60EE0EBA00BF09A8CDE900064046D4
:103A60008021022201230295FDF7DCFB60B144F6C0
:103A70007300C0F6000000F0E5FD4FF00009DAF831
:103A80000000012817D01DE00A20FDF71FF9DAF821
:103A90000000012816D1BDF82400022190FA90F907
:103AA00044F21470C0F600004A4600F051F9DAF80A
:103AB0000000012806D144F29170C0F6000049468A
:103AC00000F046F98AEE8C0A002507A8079570EEEB
:103AD0000DAAFFF739FDDAF80000012838D144F6C5
:103AE000A406C0F60006304600F0ACFDDDED07CAC6
:103AF0001CEE900AFCF7ADFB04461AEE900A0F4646
:103B0000FCF7A7FB41EC100B44F2A560C0F60000E7
:103B100022463B468DED000B00F01AF91BEE900A91
:103B2000FCF797FB02466FA00B4600F011F9BBF8BB
:103B3000001072A000F00CF9DBF8041077A000F080
:103B400007F9304600F07EFDCAF8005030E000BFB3
:103B5000DDED07CA1CEE900AFCF77BFB04461AEE6B
:103B6000900A0F46FCF775FB41EC100BDBF80C00DC
:103B7000DBF80410002852A050A208BF1046CDE97F
:103B8000041044F2B370C0F6000022463B46CDE973
:103B900002558DED000B00F0DBF8DAF8000001288B
:103BA00006D19FED3D0B47A053EC102B00F0D0F851
:103BB000DBE902104FF0FF354A1C3B290DF12607C7
:103BC00088BF0022CBF8082030BBF4EE4FCAF1EEDC
:103BD00010FA21DA44F68300C0F6000000F032FD4E
:103BE000F4EE68AAF1EE10FA4FF0020636DADBF8CE
:103BF000043040F2C400C2F20000A3F132010068B8
:103C0000CBF80410C26A312B3FF7ADAE91427FF67C
:103C1000AAAE0021A5E600BF4FF0020640B944F667
:103C20004300C0F6000000F00DFD0120CBF80C00B1
:103C30003EA000F007FD40F2C400C2F20000DBF835
:103C400004100068F4EE69AAF1EE10FA7FF78BAE6B
:103C5000C26A91423FF684AE323182E640F2C4003D
:103C6000C2F20000DBF804100068F4EE68AAF1EE7E
:103C700010FA7FF778AE3231CBF80410C26A914265
:103C80003FF66EAE6FE600BF666686409A99993E33
:103C90008FC2F53C00BF00BF000000000000000024
:103CA000000000000AD7233CCDCCCC3D00007A4474
:103CB000000016438FC275BC67CECC38434300006A
:103CC0004356000054656D706572617475726520AD
:103CD0002850726576696F7573293A20252E3266F1
:103CE00020430A007265675F43757272656E743AAD
:103CF00020252E336620410A0000000043616C69D4
:103D000062726174696F6E2052656769737465725F
:103D10002056616C75653A2025750A0050574D2074
:103D2000447574793A2025642C000000436F6E734B
:103D300074616E7420566F6C74616765204D6F649A
:103D400065202843562053746167652900000000F0
:103D50000FB4054B10B503A9044A029800F0DAF835
:103D600010BC5DF814FB0000B13800080000002012
:103D700002E008C8121F08C1002AFAD17047704734
:103D8000002001E001C1121F002AFBD17047000092
:103D90002DE9FF5F82B00021DDE90430020DDDF87E
:103DA00040B0034318D044F61050A2F2FF32424311
:103DB0001514119801281FD0A5EB0B00401C5FEAD9
:103DC000000A4FF000064E4FDFF83891B0465046DB
:103DD00015D5CAF1000413E0119801244AA3012863
:103DE00001D16FEA0B010298119AC0E90031C0E9D4
:103DF000024206B0BDE8F09FCBF10000DFE70446C9
:103E00000021404A491842EB0450CDE9001012E06D
:103E1000E00707D032463B4640464946FCF708FBE0
:103E20008046894632463B4610461946FCF700FB61
:103E300006460F466410002CEAD1DDE90401DDE9F5
:103E40000023BAF1000F06DAFCF7F2FA42464B46BD
:103E5000FCF7EEFA05E0FCF75DFB42464B46FCF74B
:103E600059FB04460E460022284BFCF7DBFB03D827
:103E70004FF0FF30014607E00022254B2046314637
:103E8000FCF72FFAFCF7B5FB102409E0002C0ADB45
:103E90000A220023FCF79AF9039B30321A55641E5C
:103EA00050EA0102F2D1641C039AC4F111031444D4
:103EB000119A012A03D0012208430DD10AE00843D8
:103EC00004D000204FF0110B119072E7A3EB0B050B
:103ED0006D1E0DE05B4504DD4FF0000205F10105AC
:103EE00004E003DA4FF00002A5F10105002AECD04E
:103EF00002981199C0E90231C0E9004579E7000054
:103F0000000014400000F03F300000000000F043CB
:103F10000000E03F2DE9FF4F95B09B4689460646DD
:103F200000250FE2252877D100242746F84A0121F1
:103F3000059400E0044316F8013F203B01FA03F02A
:103F40001042F7D130782A2811D06FF02F03307843
:103F5000A0F13002092A16D8059A44F0020402EBB7
:103F6000820203EB42021044761C0590EFE759F8F9
:103F7000042B0592002A03DA504244F400540590C1
:103F800044F00204761C30782E2816D116F8010F62
:103F900044F004042A280DD06FF02F023078A0F1ED
:103FA0003003092B09D807EB870302EB4303C7183B
:103FB000761CF3E759F8047B761C30786C280FD018
:103FC00006DC4C2817D068280DD06A2814D104E0EC
:103FD000742810D07A280FD10DE044F400140AE0C0
:103FE00044F4801401E044F440147278824202D117
:103FF00004F58014761C761C307866280BD013DC10
:10400000582877D009DC002875D04528F6D04628F6
:10401000F4D047281AD19DE118E0632835D06428F0
:1040200079D0652812D195E1702873D008DC672813
:10403000F1D069286FD06E280DD06F2806D1B5E079
:1040400073282CD0752875D0782874D05A461799C3
:1040500090476D1C75E1C4F30250022809D0032873
:104060000DD0D9F8001004280DD00D6009F1040915
:1040700067E1D9F80010EA17C1E90052F6E7D9F86C
:1040800000100D80F2E70D70F0E719F8041B8DF8B1
:10409000001000208DF80100EA46012003E059F8E5
:1040A00004AB4FF0FF3061074FF0000102D40DE088
:1040B00008F101018846B9420FDA8045F8DB1AF8A9
:1040C00008100029F4D108E008F101018846814276
:1040D000FADB1AF808100029F6D105985B46A0EB28
:1040E000080721463846179A00F094FA284400EB56
:1040F000080507E04DE029E10DE01AF8010B5A46EA
:1041000017999047B8F10108F7D25B462146384627
:10411000179A13E142E00A220092C4F302524FF0D0
:10412000000A022A08D059F804CB032A4FEAEC719E
:104130000AD00DE029E02AE009F1070121F0070289
:10414000F2E802C1914609E00FFA8CFC4FEAEC71EB
:10415000042A03D14FFA8CFC4FEAEC71002907DAEC
:104160000A460021DCF1000C61EB02012D2202E085
:10417000220504D52B228DF80420012203E0E2075A
:1041800001D02022F7E7904659E00A2102E01022F0
:104190000DE010214FF0000A00910BE010224FF0CB
:1041A000000A44F004040827009203E008224FF0BC
:1041B000000A0092C4F30252022A05D059F804CB37
:1041C0000021032A08D009E009F1070121F00702C4
:1041D000F2E802C1914605E01FFA8CFC042A01D1E5
:1041E0000CF0FF0C4FF00008220728D5702806D0ED
:1041F000009B83F0100353EA0A0305D00EE040222F
:104200008DF80420012208E05CEA010206D0302289
:104210008DF804208DF8050002229046009B83F063
:10422000080353EA0A030AD15CEA010201D16207DA
:1042300005D530228DF804204FF001087F1E582844
:1042400004D034A003900EA802900DE036A0F9E748
:1042500053466046009AFBF7B9FF84460398825C98
:104260000298401E029002705CEA0100F0D10298B0
:1042700006A9081A00F1200A600702D524F4803448
:1042800000E00127574502DDA7EB0A0000E000200F
:1042900000EB0A01009005984144401A0590E003A4
:1042A00006D45B462146179A059800F0B3F90544F9
:1042B000002706E001A85A46C05D179990476D1C7B
:1042C0007F1C4745F6DBE0030CD55B462146179A79
:1042D000059800F09FF9054404E030205A461799EC
:1042E00090476D1C0099481E00900029F5DC08E0FD
:1042F000029802995A460078491C029117999047F2
:104300006D1CBAF10001AAF1010AF1DC65E10000BF
:10431000092801003031323334353637383961629B
:10432000636465660000000030313233343536375F
:1043300038394142434445460000000000F058F936
:104340000544761C307800287FF4ECAD19B028467F
:10435000BDE8F08F620700D4062709F1070222F0BA
:10436000070CFCE80223E14603F000485FEA080C72
:1043700002D00FF2702C0DE05FEA045C02D50FF260
:10438000682C07E05FEAC47C02D00FF2602C01E0E9
:10439000AFF2700C4FF0FF3823F00043CDF850C05F
:1043A00065280CD006DC452809D046281DD04728B2
:1043B0003DD13DE0662818D067287ED138E0002145
:1043C000112F01DB112000E0781CCDE9000106A9C6
:1043D0000EA8FFF7DDFCDDE90F010E9A0391002125
:1043E000009207F1010A04914DE04FF00040009760
:1043F000CDE9011006A90EA8FFF7CAFCDDE90F02FE
:1044000003920E9B11990022DDF80CA000930492F8
:1044100011B9791C00EB010AB7EB0A0004D4C0F112
:10442000FF3007F1010A0490AAEB0700019044E075
:10443000012F00DA01270021112F01DD112000E0FA
:104440003846CDE9000106A90EA8FFF7A1FCDDE979
:104450000F010E9A0391002104910092BA462107A0
:104460000CD40399514500DA8A46BAF1010F05DDF3
:10447000009AAAF10101515C302908D0B84202DA51
:1044800010F1040F06DA0121CDE9011015E0AAF1BF
:104490000101E9E7002805DC049901440491AAEB35
:1044A000000102E0411C514500DD8A460499401A92
:1044B000401C01904FF000400290200704D4019866
:1044C000504501DBCDF8048000208DF84F000298A4
:1044D0000DF14F07B0F1004F25D02B200E90029820
:1044E0004FF0020800280CDA404202902D200E9076
:1044F00007E00A210298FBF7BFFE3031029007F86F
:10450000011DB8F10001A8F10108F2DC02980028B1
:10451000EFD1791E0E980870307800F0200040F03E
:10452000450007F8020D12A8C01B00F107081498F7
:10453000007800B1012000EB0A01019801EBE07165
:1045400005984144401A401E0590E00306D45B469E
:104550002146179A059800F05DF8054414980078F4
:1045600018B15A46179990476D1CE00324D55B4655
:104570002146179A059800F04DF805441CE0049870
:10458000002807DBDDE90301884203DD0098405C79
:10459000179901E0179930205A469047049805F181
:1045A0000105401C04900198401E019004D12E206A
:1045B0005A46179990476D1CBAF10001AAF1010AF9
:1045C000DDDC05E017F8010B5A46179990476D1C82
:1045D000B8F10001A8F10108F4DC5B462146179A06
:1045E0000598ABE62D0000002B0000002000000025
:1045F0002DE9F041044600251E461746880404D4E0
:1046000005E039462020B0476D1C641EF9D52846C8
:10461000BDE8F0812DE9F041044600251E46904694
:10462000C80301D5302700E02027880404D505E021
:1046300041463846B0476D1C641EF9D52846BDE892
:10464000F081000010B5044601E0FFF731F914F8DD
:10465000010B04490028F8D1BDE810400A20FFF7FB
:1046600027B900000000002000000000000000004A
:104670000102030406070809000000000102030408
:10468000493243205772697465204572726F7220F7
:1046900061742052656769737465722030782530C3
:1046A0003258210A006261747465727920566F6C09
:1046B000746167653A20252E336620562C20437599
:1046C0007272656E743A20252E336620410A0043CB
:1046D000757272656E7420526567697374657220B5
:1046E0005261773A2025642C2043757272656E748E
:1046F0003A20252E336620410A00466F756E6420ED
:10470000493243206465766963652061742030789E
:1047100025580A004932432052656164205375636D
:104720006365737320617420526567697374657281
:10473000203078253032583A203078253034580AE5
:10474000004932432057726974652053756363656D
:1047500073732061742052656769737465722030C9
:1047600078253032583A203078253034580A0043C2
:104770006F6E66696720526567697374657220524F
:104780006561646261636B3A203078253034580A81
:10479000005261772042757320566F6C74616765B3
:1047A0002052656769737465723A20307825303419
:1047B000580A005B565F626174743A20252E336696
:1047C00020565D20205B493A20252E336620415D2E
:1047D00020205B54656D703A20252E3266204320E0
:1047E0005D20205B50574D3A2025645D205B25738A
:1047F000204D6F64655D0A0050574D2044757479F3
:104800003A2025640A004552524F523A20494E41FF
:1048100032313920436F6E66696775726174696FF2
:104820006E20526567697374657220697320302C3D
:1048300020493243205752495445204641494C456E
:10484000442100566F6C746167652072656163680E
:104850006564207461726765742120436F6E7374A0
:10486000616E7420766F6C74616765207374616724
:104870006521004932432052656164204572726FA0
:10488000722100436F6E7374616E7420437572728F
:10489000656E74204D6F6465202843432053746116
:1048A000676529002D2D2D2D2D2D2D2D2D2D2D2DF7
:1048B0002D2D2D2D2D2D2D2D2D2D2D2D2D000000AF
:1048C000E04800080000002018000000703D0008CB
:1048D000F84800081800002040050000803D00084E
:1048E0000000000001000000100000000024F4009F
:0848F0000100000000000000BF
:040000050800019559
:00000001FF
